:020000040000FA
:060000000A128A110C280F
:10000800FE00030EF0000A08F1000A128A113A28CD
:100018000A128A110F2883010A128A1113288316DB
:10002800031386010714071583120313860187013A
:100038008B170B17831603130C140C158312031359
:100048009015101190141014101290120C100C111D
:10005800171497101715971100308F0001308E0074
:100068009501960136280A128A110C288312031367
:100078000C1D3F2840284228150886000C117108DD
:0C0088008A00700E8300FE0E7E0E090040
:02400E00393F38
:00000001FF
