:020000040000FA
:060000000A128A1110280B
:10000800FE00030EF0000A08F100831203137F08B4
:10001800F2000A128A111B280A128A111328F50104
:10002800F601F701F80183010A128A1197280B1CBF
:100038001E281F288A288B11061E232824283928C1
:100048007808803AFF0083307F02031D2D28E830AE
:10005800770203183028312839287708643EF700DA
:1000680078080318013E003EF80083120313861E29
:100078003E283F2854287808803AFF0080307F02C5
:10008800031D482801307702031C4B284C285428AC
:1000980077089C3EF70078080318013EFF3EF800F9
:1000A80083120313061F59285A286F287608803AA6
:1000B800FF0083307F02031D6328E83075020318B0
:1000C800662867286F287508643EF50076080318C7
:1000D800013E003EF60083120313861F742875281C
:1000E8008A287608803AFF0080307F02031D7E2828
:1000F80001307502031C812882288A2875089C3ED5
:10010800F50076080318013EFF3EF6008B150B102C
:10011800720883120313FF0071088A00700E8300AF
:10012800FE0E7E0E0900F030831603138600870149
:100138000F308800831203138601870188018B170B
:100148000B178B150B100F3097000F309D000730E1
:1001580092009101FA308316031392008312081C4F
:10016800B628B728B928061086140818BC28BD2850
:10017800BF2806148610881CC228C328C528061163
:1001880086158818C828C928CB2806158611780826
:10019800F4007708F300740DF40CF30C740DF40CF0
:1001A800F30C730895007718DA28DE2883120313F6
:1001B8001716E12883120313171297127608F40012
:1001C8007508F300740DF40CF30C740DF40CF30CB7
:1001D80073089B007518F128F528831203131D1660
:1001E800F828831203131D129D12B2280A128A11CD
:0201F8001028CD
:02400E00393F38
:00000001FF
