:020000040000FA
:060000000A128A11122809
:10000800FE00030EF1000408F2000A08F300831250
:1000180003137F08F4000A128A111D280A128A1194
:100028001528F501F601F701F80183010A128A1172
:1000380064289101C8308316031392008C1C25286C
:1000480026285728831203138C1C2B282C28572862
:100058000130F7070318F80A0030F807F43077067C
:10006800031D3A287803031D3A283B284E287508B3
:10007800F0007007013E84000A128A1184200A12D7
:100088008A1186000130F5070318F60A0030F607D2
:10009800F701F8010A3075067604031D542855281F
:1000A8005728F501F60183128C107408FF007308B5
:1000B8008A0072088400710E8300FE0E7E0E09000D
:1000C8008312031386018316031386018B170B17FC
:1000D800831203138C10831603138C1483120313D7
:1000E80092151212921212171215121092109101F3
:1000F800C83083160313920080280A128A11122826
:1001080000308A000408840A820700343F3400342F
:10011800063400345B3400344F3400346634003421
:100128006D3400347C340034073400347F340034B8
:040138006F340034EC
:02400E00393F38
:00000001FF
