:020000040000FA
:100000000A128A11FC2F00308A000408840A820731
:0A0010000034063400348634003456
:100F94008316031306108611861383120313061097
:100FA4008610061186110612861206138613033064
:100FB400F2008A30F1005530F000F00BDF2FF10B16
:100FC400DF2FF20BDF2FE62F83120313061486158F
:100FD40086170630F2001330F100AD30F000F00B4C
:100FE400F12FF10BF12FF20BF12FF82FCA2F0A1268
:0C0FF4008A11002883010A128A11CA2FFA
:02400E00393F38
:00000001FF
