:020000040000FA
:060000000A128A110C280F
:10000800FE00030EF2000A08F3000A128A111528EE
:100018000A128A110F28F001F10183010A128A11CC
:100028004328B130831203138F00E0308E000C1C7C
:100038001E281F282728643070067104031D2528F0
:100048002628272806140C1C2A282B283528C830CF
:1000580070067104031D3128322835280610F00176
:10006800F1010130F0070318F10A0030F1070C1014
:1000780073088A00720E8300FE0E7E0E090083123A
:10008800031386018316031306108B170B170C1422
:10009800831203139010101290121014B1308F00B5
:0C00A800E0308E0056280A128A110C2845
:02400E00393F38
:00000001FF
