:020000040000FA
:060000000A128A110C280F
:10000800FE00030EF3000A08F4000A128A111328EE
:100018000A128A110F2883010A128A11552883129D
:10002800031386010B1C19281A282D28061E1D28C3
:100038001E282D2806141030F2003930F1000D303A
:10004800F000F00B2528F10B2528F20B25282C2889
:100058004D280B1C302831283728861E342835288F
:10006800372886141F280B1C3A283B284128061FCE
:100078003E283F28412806151F280B1C44284528E0
:100088004D28861F482849284D2806148614061529
:100098001F280B1074088A00730E8300FE0E7E0E54
:1000A8000900831203138601F030831603138600B8
:1000B8000A128A1169200A128A11831203138614FC
:1000C800061561280A128A110C288B178B1508004F
:02400E00393F38
:00000001FF
