:020000040000FA
:060000000A128A110C280F
:10000800FE00030EF1000A08F2000A128A113A28CB
:100018000A128A110F2883010A128A1113288316DB
:1000280003130610071407118312031386018701AF
:100038008B170B17831603130C140C158312031359
:100048009015101190141014101290120C100C111D
:100058008E018F0100309600053095001714971413
:100068001711971536280A128A110C2883120313C0
:100078000C1D3F2840284A2806080139F0000130A5
:10008800F00606087006FE39700686000C100C1182
:0E00980072088A00710E8300FE0E7E0E0900B3
:02400E00393F38
:00000001FF
