:020000040000FA
:060000000A128A110C280F
:10000800FE00030EF2000A08F3000A128A111528EE
:100018000A128A110F28F001F10183010A128A11CC
:1000280041283B308312031381000B1D1C281D2817
:100038002528143070067104031D23282428252838
:1000480006140B1D28282928332828307006710427
:10005800031D2F28302833280610F001F101013044
:10006800F0070318F10A0030F1070B1173088A0032
:10007800720E8300FE0E7E0E09008B178B168316F8
:10008800031381128111073081003B30831203135F
:100098008100831603130610831203138601532865
:0600A8000A128A110C2867
:02400E00393F38
:00000001FF
