:020000040000FA
:060000000A128A110C280F
:10000800FE00030EF3000A08F4000A128A114028C1
:100018000A128A110F2883010A128A1113288316DB
:1000280003130614861086138312031386010A121B
:100038008A115F200A128A11031083120313861C87
:100048000314031828282C288312031386142F2836
:100058008312031386101030F7003930F6000D3084
:10006800F500F50B3528F60B3528F70B35283C2815
:1000780020280A128A110C288B1C4328442854284B
:100088008312031386171A30F2005E30F1006E30C7
:10009800F000F00B4D28F10B4D28F20B4D28000015
:1000A8008312031386138B1074088A00730E83005F
:1000B800FE0E7E0E09008B170B168316031301170D
:0200C80008002E
:02400E00393F38
:00000001FF
