:020000040000FA
:060000000A128A110C280F
:10000800FE00030EF2000A08F3000A128A111528EE
:100018000A128A110F28F001F10183010A128A11CC
:100028004728FF30831203138F00FF308E00013002
:10003800F0070318F10A0030F1070C1C24282528C2
:1000480030280030710210300319700203182D286F
:100058002E283028700886000C1C332834283F28A6
:1000680000307102103003197002031C3C283D282F
:100078003F28F001F1010C1073088A00720E83000A
:10008800FE0E7E0E090083120313860183160313E6
:1000980006108610061186118B170B170C14831285
:1000A80003139014101410129012FF308F00FF30B9
:0A00B8008E005D280A128A110C2840
:02400E00393F38
:00000001FF
