:020000040000FA
:100000000A128A11FC2F00308A000408840A820731
:1000100000344434653467346534723420343A34FF
:040020002034003454
:100B26005330F000F00B952D080001300A128A119F
:100B3600E6250A128A110330F4009730F300F30B0E
:100B4600A22DF40BA22DA72D0800F4007403031D9B
:100B5600AD2DAE2DB82D7308FF3E0F39803E0A121B
:100B66008A11E6250A128A11C12D7308FF3E0F3934
:100B7600C03E0A128A11E6250A128A110800F400FC
:100B86000A128A1193250A128A11D92D7408840033
:100B96000A128A1103200A128A110A128A110B26D6
:100BA6000A128A110130F3007308F40774088400EE
:100BB6000A128A1103200A128A11003A031DE42D33
:100BC600E52DC92D0800F2008312031386100610C6
:100BD60006157208F039870006110A128A11932544
:100BE6000A128A1183120313061572080F39F100CF
:100BF60003300310F10DFF3E031DFC2D0310710D94
:100C0600870006110A128A1193250A128A11080012
:100C1600F200831203138610061406157208F039C3
:100C2600870006110A128A1193250A128A11831265
:100C36000313061572080F39F10003300310F10D86
:100C4600FF3E031D212E0310710D870006110A12A7
:100C56008A1193250A128A110800831203130610BB
:100C6600061186101430F6007930F500F50B392E92
:100C7600F60B392E3E2E83120313061502300A1286
:100C86008A11E6250A128A110330F6009730F5001C
:100C9600F50B4B2EF60B4B2E502E28300A128A11CE
:100CA600E6250A128A1106300A128A11E6250A1268
:100CB6008A110C300A128A11E6250A128A110A12C2
:100CC6008A1198250A128A1180300A128A11E6259D
:100CD6000A128A110800F601F31F722E732E7A2E5D
:100CE600F209F309F20A0319F30AF601F60AF11FEB
:100CF6007D2E7E2E832EF009F109F00A0319F10AE2
:100D0600700871040319882E892EB82EF501F50A8C
:100D1600972E01300310F00DF10DFF3E031D8D2EB1
:100D26000130F4007408F507F11F9A2E9B2E8C2EC5
:100D360071087302031DA12E70087202031CA42EF3
:100D4600A52EAB2E7008F2027108031CF303F30202
:100D560001300310F10CF00CFF3E031DAC2E0130E8
:100D6600F502031DB72EB82E9B2E76080319BC2E4E
:100D7600BD2EC22EF209F309F20A0319F30A73080B
:100D8600F1007208F000080083120313A101F81F96
:100D9600CD2ECE2ED52EF709F809F70A0319F80A33
:100DA600A101A10AFA1FD82ED92EE22EF909FA09B5
:100DB600F90A0319FA0A0130FB007B08A106A20111
:100DC600A301770878040319E92EEA2E212FA00142
:100DD600A00AF82E01300310F70DF80DFF3E031D93
:100DE600EE2E0130FB007B08A007F81FFB2EFC2E21
:100DF600ED2E01300310A20DA30DFF3E031DFD2EA7
:100E060078087A02031D092F77087902031C0C2F34
:100E16000D2F142F7708F9027808031CFA03FA023B
:100E2600221401300310F80CF70CFF3E031D152F9A
:100E36000130A002031D202F212FFC2E21080319AB
:100E4600252F262F2B2FA209A309A20A0319A30ACD
:100E56002308F8002208F70008008316031386010A
:100E6600870183120313860187010F30970005302F
:100E7600920091016430831603139200323083127C
:100E860003139500171297121508A400A501031065
:100E9600A40DA50D0310A40DA50D0310171A031418
:100EA6000030031801302407A60000300318013073
:100EB6002507A7000310971A031400300318013002
:100EC6002607A8000030031801302707A9002808C4
:100ED600FC002908FD000A128A1130260A128A111E
:100EE600F301F30A01300A128A11A8250A128A119F
:100EF60001300A128A11C2250A128A11E830F70057
:100F06000330F8007D08F3007C08F2001030F00092
:100F16002730F1000A128A116E260A128A11710808
:100F2600FA007008F9000A128A11C7260A128A11F5
:100F36007708303E0A128A110B260A128A1164308B
:100F4600F7000030F8007D08F3007C08F200E83076
:100F5600F0000330F1000A128A116E260A128A1175
:100F66007108FA007008F9000A128A11C7260A12D7
:100F76008A117708303E0A128A110B260A128A1144
:100F86000A30F7000030F8007D08F3007C08F20014
:100F96006430F0000030F1000A128A116E260A123F
:100FA6008A117108FA007008F9000A128A11C72618
:100FB6000A128A117708303E0A128A110B260A1283
:100FC6008A110A30F0000030F1007D08F3007C0839
:100FD600F2000A128A116E260A128A117008303E31
:100FE6000A128A110B260A128A11F82F0A128A117E
:0A0FF600002883010A128A11302F2F
:02400E00393F38
:00000001FF
