:020000040000FA
:060000000A128A1110280B
:10000800FE00030EF5000A08F600831203137F08AA
:10001800F7000A128A1127280A128A1113280A12CD
:100028008A11A6200A128A11F8000A128A11A7203A
:100038000A128A11F900F001F101F201F3018301BA
:100048000A128A1197280B1D2A282B288928013083
:10005800F0070318F10A0030F1077108803AFF0031
:1000680093307F02031D3A2889307002031C3D2813
:100078003E285728F001F1017908803AFF008030C6
:100088007F02031D492809307802031C4C284D289B
:1000980051280230F8000030F9000130F807031841
:1000A800F90A0030F9070130F2070318F30A0030A3
:1000B800F3077908803AF4007308803A7402031D44
:1000C800672872087802031C6A286B286F28831235
:1000D8000313061480287908803AF4007308803ADC
:1000E8007402031D79287208780203187C287D2879
:1000F8008028831203130610643072067304031DEC
:10010800862887288928F201F301E7308312031330
:1001180081000B117708FF0076088A00750E8300AE
:10012800FE0E7E0E09008B178B16831603138601AD
:1001380002308100E730831203138100A2280A12DB
:080148008A1110280334003471
:02400E00393F38
:00000001FF
