:020000040000FA
:060000000A128A110C280F
:10000800FE00030EF2000A08F3000A128A111528EE
:100018000A128A110F28F001F10183010A128A11CC
:100028004228FD308312031381000130F0070318C2
:10003800F10A0030F1070B1D222823282B28700312
:100048007104031D282829282B28061486100B1D47
:100058002E282F283A28023070067104031D3528EF
:1000680036283A2806108614F001F1010B1173089E
:100078008A00720E8300FE0E7E0E0900831203139F
:100088008601831603130516061086108B178B1628
:10009800811601168111011081100111FD308312A2
:0C00A8000313810056280A128A110C284C
:02400E00393F38
:00000001FF
