:020000040000FA
:060000000A128A11FC2F18
:100F3600831603138601831203138601F701F70A4A
:100F4600F301F40177088312031386000230F200DE
:100F56004530F100A930F000F00BAF2FF10BAF2FA9
:100F6600F20BAF2FB62F7708F0007007F10071086B
:100F7600F7000130F3070318F40A0030F4070030D5
:100F86007402083003197302031CCA2FCB2FA52F36
:100F96008030F0007008F700F501F601770883123B
:100FA600031386000230F2004530F100A930F0004C
:100FB600F00BDB2FF10BDB2FF20BDB2FE22F770889
:100FC600F0000310700CF1007108F7000130F5070E
:100FD6000318F60A0030F6070030760208300319C7
:100FE6007502031CF72FF82FD12FA12F0A128A1191
:0A0FF600002883010A128A119B2FC4
:02400E00393F38
:00000001FF
