:020000040000FA
:060000000A128A11EC2F28
:100F18000E3400340C3400340D34003409340034F9
:100F28000B340034033400340734003406340034FE
:100F38007E088A007F0882000A128A119C270A12FA
:100F48008A118000840A04087D0603190034FF0A08
:100F58000319FE0AA02F83160313860183120313B5
:100F680086017308F0007007203E84008313000890
:100F78008312031386000830F2009D30F10005301B
:100F8800F000F00BC52FF10BC52FF20BC52FCC2F9E
:100F98000130F3070318F40A0030F4070830730629
:100FA8007404031DD82FD92FB52FF301F40108308D
:100FB800F2009D30F1000530F000F00BE12FF10B4D
:100FC800E12FF20BE12FE82FB52F0A128A11002822
:100FD80083133030FD000730FE008C30FF002030D6
:100FE80084000A128A11A0270A128A11F301F40157
:080FF80083010A128A11AF2FD8
:02400E00393F38
:00000001FF
