:020000040000FA
:060000000A128A11EE2F26
:100EAE007E088A007F0882000A128A1157270A12CA
:100EBE008A118000840A04087D0603190034FF0A93
:100ECE000319FE0A5B2F3F340034063400345B34C2
:100EDE0000344F340034663400346D3400347C34C6
:100EEE000034073400347F3400346F3400343F3420
:100EFE000034063400345B3400344F34003466342E
:100F0E0000346D3400347C340034073400347F34C4
:100F1E0000346F3400348312031386018701831665
:100F2E00031386018701F201F3017208F0007007C6
:100F3E00343E84008313000883120313870041306C
:100F4E00F100EE30F000F00BAA2FF10BAA2F0000EB
:100F5E00F401F5017408F0007007203E840083133D
:100F6E0000088312031386004130F100EE30F000CA
:100F7E00F00BBF2FF10BBF2F00000130F407031849
:100F8E00F50A0030F5077508803AFF0080307F02C1
:100F9E00031DD32F0A307402031CD62FD72FB12F67
:100FAE000130F2070318F30A0030F3077308803A92
:100FBE00FF0080307F02031DE62F0A307202031CF1
:100FCE00E92FEA2F9C2F9A2F0A128A1100288313D9
:100FDE004830FD000730FE006A30FF0020308400EC
:100FEE000A128A115B270A128A1183010A128A11C8
:020FFE00922F30
:02400E00393F38
:00000001FF
