:020000040000FA
:060000000A128A11F82F1C
:10000E00F200831203138610061006157208F039DB
:10001E00870006110A128A15AD270A128A11831259
:10002E000313061572080F39F10003300310F10D9A
:10003E00FF3E031D1D280310710D870006110A12C5
:10004E008A15AD270A128A110800F20083120313D3
:10005E008610061406157208F039870006110A126A
:10006E008A15AD270A128A11831203130615720818
:10007E000F39F10003300310F10DFF3E031D42282E
:10008E000310710D870006110A128A15AD270A1288
:10009E008A110800F800F401F5017008F200F3016E
:1000AE007208F6007308F700781C5E285F28652832
:1000BE007608F4070318F50A7708F50701300310E0
:1000CE00F60DF70DFF3E031D66280310F80C780899
:1000DE00031D722873285B287508F1007408F00060
:1000EE000800831203130610061186101430F60052
:1000FE007930F500F50B8128F60B812886288312BE
:10010E000313061502300A128A1107200A128A11E9
:10011E000330F6009730F500F50B9328F60B932875
:10012E00982828300A128A1107200A128A110630DE
:10013E000A128A1107200A128A110C300A128A1129
:10014E0007200A128A110A128A15B2270A128A1178
:10015E0080300A128A1107200A128A110800F6014D
:10016E00F31FBA28BB28C228F209F309F20A0319B1
:10017E00F30AF601F60AF11FC528C628CB28F009A6
:10018E00F109F00A0319F10A700871040319D02855
:10019E00D1280029F501F50ADF2801300310F00DF2
:1001AE00F10DFF3E031DD5280130F4007408F5074C
:1001BE00F11FE228E328D42871087302031DE928F1
:1001CE0070087202031CEC28ED28F3287008F20266
:1001DE007108031CF303F30201300310F10CF00C51
:1001EE00FF3E031DF4280130F502031DFF280029F0
:1001FE00E32876080319042905290A29F209F309C7
:10020E00F20A0319F30A7308F1007208F0000800ED
:10021E0083120313A101F81F152916291D29F709A9
:10022E00F809F70A0319F80AA101A10AFA1F2029F1
:10023E0021292A29F909FA09F90A0319FA0A0130BA
:10024E00FB007B08A106A201A3017708780403191D
:10025E00312932296929A001A00A40290130031051
:10026E00F70DF80DFF3E031D36290130FB007B080C
:10027E00A007F81F43294429352901300310A20D88
:10028E00A30DFF3E031D452978087A02031D51294F
:10029E0077087902031C542955295C297708F9023D
:1002AE007808031CFA03FA02221401300310F80C2A
:1002BE00F70CFF3E031D5D290130A002031D6829C6
:1002CE0069294429210803196D296E297329A20968
:1002DE00A309A20A0319A30A2308F8002208F700AB
:1002EE0008000310831203133C0D3D0DBE003E08A3
:1002FE00C4004408031D842985298E290030BD00C1
:10030E000030BC000030BB000030BA00F3293A08C0
:10031E00BE003B08BF003C08C0003D08C1001F30B6
:10032E000310C10CC00CBF0CBE0CFF3E031D972961
:10033E003E08C2004208C300BC17FF30BA05FF30AA
:10034E00BB05FF30BC050030BD059630C402C41F8E
:10035E00B129B229CC294408803A973E0318B8290E
:10036E00B929BA29852901300310BD0CBC0CBB0C70
:10037E00BA0CFF3E031DBB290130BE003E08C40768
:10038E00031DCA29CB29BA29E32920304402031CB4
:10039E00D129D229DE2985290130BE000310BA0DDC
:1003AE00BB0DBC0DBD0DBE0BD5290130C4024408DA
:1003BE00031DE229E329D32943080319E729E82974
:1003CE00F329BA09BB09BC09BD09BA0A0319BB0A4C
:1003DE000319BC0A0319BD0A0800F80078080319AE
:1003EE00F929FA290E2AF31FFD29FE290E2A700972
:1003FE00FA007109FB007209FC007309FD00FA0A8C
:10040E000319FB0A0319FC0A0319FD0A162A7308BD
:10041E00FD007208FC007108FB007008FA007308FA
:10042E00720471047004031D1D2A1E2A272A00302F
:10043E00F3000030F2000030F1000030F000AD2A81
:10044E009630F4007408F900392A0130F40074086B
:10045E00F90701300310FD0CFC0CFB0CFA0CFF3EEF
:10046E00031D312AFE307D05031D3E2A3F2A2C2A0C
:10047E005B2A0130F4007408F9070130FA070030E6
:10048E0003180130FB07003003180130FC07003061
:10049E0003180130FD0701300310FD0CFC0CFB0CA2
:1004AE00FA0CFF3E031D532AFF307D05031D602A03
:1004BE00612A402A6D2A0130F9020130F40003103E
:1004CE00FA0DFB0DFC0DFD0DF40B662AFC1B702ABC
:1004DE00712A772A023079020318762A772A622A3D
:1004EE0079187A2A7B2A832AFF30FA05FF30FB051A
:1004FE007F30FC05FF30FD050310F90C7908F40080
:10050E00F501F601F70118300310F40DF50DF60D97
:10051E00F70DFF3E031D8B2A7408FA047508FB04C1
:10052E007608FC047708FD04780803199F2AA02A90
:10053E00A52AF31FA32AA42AA52AFD177D08F300D6
:10054E007C08F2007B08F1007A08F0000800013008
:10055E008316031385008601870183120313850119
:10056E00860187011F141F119F111F129F121F1347
:10057E009F13831603131F109F141F159F151F1310
:10058E009F170F30831203139D00053092009101C7
:10059E0063308316031392000A128A1178200A120E
:1005AE008A11831203131F151F19DE2ADF2ADB2A75
:1005BE00071587111E08C500C6014508C600C501EE
:1005CE00831603131E08831203134507F000003031
:1005DE00031801304607F100F201F11BF203720815
:1005EE00F30001300A128A11F4210A128A117308DB
:1005FE0083120313A7007208A6007108A5007008E5
:10060E00A4003E30A300C830A2003230A1000D304D
:10061E00A0000A128A1197240A128A118312031358
:10062E002308BD002208BC002108BB002008BA0028
:10063E000A128A1178210A128A11831203133B08B7
:10064E00C8003A08C7004808C6004708C500460D4E
:10065E00C60CC50C460DC60CC50C45089B004718AC
:10066E00392B3D2B831203131D16402B83120313BC
:10067E001D129D12F301F30A01300A128A15C227C8
:10068E000A128A1105300A128A15DC270A128A11FB
:10069E00E830F7000330F800831203131E08C5007C
:1006AE00C6014508C600C501831603131E08831232
:1006BE0003134507F2000030031801304607F3001C
:1006CE001030F0002730F1000A128A11B6200A12FB
:1006DE008A117108FA007008F9000A128A110F21A6
:1006EE000A128A117708303E0A128A112C200A1239
:1006FE008A116430F7000030F800831203131E08CD
:10070E00C500C6014508C600C501831603131E08A1
:10071E00831203134507F200003003180130460719
:10072E00F300E830F0000330F1000A128A11B6200F
:10073E000A128A117108FA007008F9000A128A1159
:10074E000F210A128A117708303E0A128A112C20C4
:10075E000A128A110A30F7000030F80083120313D0
:10076E001E08C500C6014508C600C5018316031341
:10077E001E08831203134507F200003003180130E0
:10078E004607F3006430F0000030F1000A128A11BF
:10079E00B6200A128A117108FA007008F9000A12BE
:1007AE008A110F210A128A117708303E0A128A1115
:1007BE002C200A128A110A30F0000030F100831248
:1007CE0003131E08C500C6014508C600C5018316E1
:1007DE0003131E08831203134507F200003003189B
:1007EE0001304607F3000A128A11B6200A128A1146
:1007FE007008303E0A128A112C200A128A11F30157
:10080E00F30A02300A128A15C2270A128A110D3013
:10081E000A128A15DC270A128A11E830F700033013
:10082E00F800831203134808F3004708F200103053
:10083E00F0002730F1000A128A11B6200A128A112E
:10084E007108FA007008F9000A128A110F210A12B3
:10085E008A117708303E0A128A112C200A128A1148
:10086E006430F7000030F800831203134808F300D9
:10087E004708F200E830F0000330F1000A128A1146
:10088E00B6200A128A117108FA007008F9000A12CD
:10089E008A110F210A128A117708303E0A128A1124
:1008AE002C200A128A110A30F7000030F800831249
:1008BE0003134808F3004708F2006430F0000030DC
:1008CE00F1000A128A11B6200A128A117108FA0072
:1008DE007008F9000A128A110F210A128A1177087C
:1008EE00303E0A128A112C200A128A110A30F000A8
:1008FE000030F100831203134808F3004708F2009A
:10090E000A128A11B6200A128A117008303E0A1293
:10091E008A112C200A128A11D82A0A128A1100284A
:10092E008312031323088039A8002808AD0023087A
:10093E00A8002807A9002908B300A21FA72CA82CDD
:10094E00A92C331433080319AD2CAE2CBD2C330A4D
:10095E00031DB22CB32CBB2C0030A3000030A20020
:10096E000030A1000030A000A217C52C0030A3005B
:10097E000030A2000030A1000030A000270880390E
:10098E00A8002808AD062708A8002807A9002908EE
:10099E00B200A61FD32CD42CD52C32143208031936
:1009AE00D92CDA2CE92C320A031DDE2CDF2CE72C95
:1009BE000030A7000030A6000030A5000030A400D3
:1009CE00A617F12C0030A7000030A6000030A500BD
:1009DE000030A40032080319F52CF62CFB2C33083A
:1009EE00031DFA2CFB2C042D0030A3000030A200B6
:1009FE000030A1000030A000F72F2008A800280822
:100A0E00F00026080A128A1151200A128A11710862
:100A1E0083120313B9007008B8003808A800A901A2
:100A2E00AA01AB012B08B1002A08B0002908AF00BB
:100A3E002808AE003908A800A901AA01AB012B08AD
:100A4E00B7002A08B6002908B5002808B400210806
:100A5E00A8002808F00025080A128A1151200A124F
:100A6E008A11710883120313B9007008B800380890
:100A7E00A800A901AA01AB012808AE072908031195
:100A8E000318013E03194C2DAF072A080311031852
:100A9E00013E0319532DB0072B0803110318013E15
:100AAE0003195A2DB1073908A800A901AA01AB01F3
:100ABE002808B407290803110318013E0319682DED
:100ACE00B5072A0803110318013E03196F2DB60747
:100ADE002B0803110318013E0319762DB7072208C0
:100AEE00A8002808F00024080A128A1151200A12C0
:100AFE008A11710883120313B9007008B800380800
:100B0E00A800A901AA01AB012808AE072908031104
:100B1E000318013E0319942DAF072A080311031879
:100B2E00013E03199B2DB0072B0803110318013E3C
:100B3E000319A22DB1073908A800A901AA01AB011A
:100B4E002808B407290803110318013E0319B02D14
:100B5E00B5072A0803110318013E0319B72DB6076E
:100B6E002B0803110318013E0319BE2DB7070830D9
:100B7E00A8000310AE0DAF0DB00DB10DA80BC02D1A
:100B8E002108A8002808F00024080A128A11512012
:100B9E000A128A11710883120313B9007008B80083
:100BAE003808A8003908A900AA01AB012808AE0729
:100BBE00290803110318013E0319E62DAF072A0871
:100BCE0003110318013E0319ED2DB0072B08031175
:100BDE000318013E0319F42DB1072008A8002808B8
:100BEE00F00025080A128A1151200A128A11710882
:100BFE0083120313B9007008B8003808A80039082A
:100C0E00A900AA01AB012808AE0729080311031891
:100C1E00013E0319132EAF072A0803110318013ED4
:100C2E0003191A2EB0072B0803110318013E0319DE
:100C3E00212EB1070830A8000310AE0DAF0DB00D78
:100C4E00B10DA80B232E2008A8002808F0002408B8
:100C5E000A128A1151200A128A1171088312031383
:100C6E00B9007008B8003808A8003908A900AA0110
:100C7E00AB012808AE07290803110318013E03191A
:100C8E00492EAF072A0803110318013E0319502EEF
:100C9E00B0072B0803110318013E0319572EB10795
:100CAE002108A8002808F00026080A128A115120EF
:100CBE000A128A11710883120313B9007008B80062
:100CCE003808A8003908A900AA01AB012808B40702
:100CDE00290803110318013E0319762EB5072A08B9
:100CEE0003110318013E03197D2EB6072B080311BD
:100CFE000318013E0319842EB7072208A8002808FE
:100D0E00F00025080A128A1151200A128A11710860
:100D1E0083120313B9007008B8003808A800390808
:100D2E00A900AA01AB012808B4072908031103186A
:100D3E00013E0319A32EB5072A0803110318013E1D
:100D4E000319AA2EB6072B0803110318013E031927
:100D5E00B12EB7072208A8002808F00026080A12AC
:100D6E008A1151200A128A11710883120313B900D5
:100D7E007008B8003808A8003908A900AA01AB010C
:100D8E0008300310A80DA90DAA0DAB0DFF3E031DD3
:100D9E00C82E2808B407290803110318013E0319A9
:100DAE00D92EB5072A0803110318013E0319E02EA8
:100DBE00B6072B0803110318013E0319E72EB707D8
:100DCE002E08A8002F08A9003008AA003108AB0091
:100DDE0018300310AB0CAA0CA90CA80CFF3E031D77
:100DEE00F02E2808B407290803110318013E031931
:100DFE00012FB5072A0803110318013E0319082F06
:100E0E00B6072B0803110318013E03190F2FB7075E
:100E1E000830A8000310AE0DAF0DB00DB10DA80B2C
:100E2E00112F33083207A800A901A90D2808823E08
:100E3E00B80029080318013EFF3EB900432F0130C8
:100E4E00A8000310B40DB50DB60DB70DA80B282FC5
:100E5E00B11F322F332F342F34140130A80003105A
:100E6E00AE0DAF0DB00DB10DA80B362FFF30B8077C
:100E7E000318B90AFF30B907B61F462F472F262F82
:100E8E00B201B11F4B2F4C2F682FFF302E05A8003B
:100E9E00FF302F05A900FF303005AA007F30310545
:100EAE00AB002B082A042904280403195F2F602F96
:100EBE00632FB201B20A682F341C662F672F682F7A
:100ECE00602F320803196C2F6D2F9E2F0130B4073F
:100EDE00003003180130B507003003180130B60793
:100EEE00003003180130B707371C7E2F7F2F9E2F3F
:100EFE003408A8003508A9003608AA003708AB0048
:100F0E000130AC002B0DAB0CAA0CA90CA80CAC0B31
:100F1E00892F2B08B7002A08B6002908B500280823
:100F2E00B4000130B8070318B90A0030B907390800
:100F3E00803AFF0080307F02031DA72FFF3038025A
:100F4E00031CAA2FAB2FB62F7F3083120313B700CB
:100F5E008030B6000030B5000030B400EB2F8312A5
:100F6E0003133908803AFF0080307F02031DC12F22
:100F7E00013038020318C42FC52FD12F0030831231
:100F8E000313B7000030B6000030B5000030B400D7
:100F9E00AD01EB2F831203133808A8002808B30005
:100FAE00FF30B405FF30B5057F30B6050030B7050C
:100FBE00331CE22FE32FE42FB6173308A8000310DB
:100FCE00280CA9002908B7002D08A8002808B70486
:100FDE003708A3003608A2003508A1003408A00087
:100FEE00080083120313C701C80183010A128A1174
:100FFE00AE2A08308A000408840A820700340D34B1
:10100E003234C8343E3441346E3461346C346F340F
:10101E0067342034003444347534743479342034D5
:02102E0000348C
:101F5A005330F000F00BAF2F080001300A128A113B
:101F6A0007200A128A150330F4009730F300F30BA6
:101F7A00BC2FF40BBC2FC12F0800F4007403031DFF
:101F8A00C72FC82FD22F7308FF3E0F39803E0A127F
:101F9A008A1107200A128A15DB2F7308FF3E0F39B0
:101FAA00C03E0A128A1107200A128A150800F40094
:101FBA000A128A15AD270A128A15F32F74088400AB
:101FCA000A128A1500200A128A150A128A112C206E
:101FDA000A128A150130F3007308F40774088400A2
:101FEA000A128A1500200A128A15003A031DFE2FCA
:061FFA00FF2FE32F080099
:02400E00393F38
:00000001FF
